{
  "contractName": "Lottery",
  "abi": [
    {
      "constant": true,
      "inputs": [],
      "name": "ticketPrice",
      "outputs": [
        {
          "name": "",
          "type": "uint256"
        }
      ],
      "payable": false,
      "stateMutability": "view",
      "type": "function"
    },
    {
      "constant": true,
      "inputs": [
        {
          "name": "",
          "type": "uint256"
        }
      ],
      "name": "holders",
      "outputs": [
        {
          "name": "",
          "type": "address"
        }
      ],
      "payable": false,
      "stateMutability": "view",
      "type": "function"
    },
    {
      "constant": true,
      "inputs": [],
      "name": "lotteryDuration",
      "outputs": [
        {
          "name": "",
          "type": "uint256"
        }
      ],
      "payable": false,
      "stateMutability": "view",
      "type": "function"
    },
    {
      "constant": true,
      "inputs": [],
      "name": "nameChangePrice",
      "outputs": [
        {
          "name": "",
          "type": "uint256"
        }
      ],
      "payable": false,
      "stateMutability": "view",
      "type": "function"
    },
    {
      "constant": false,
      "inputs": [],
      "name": "destroy",
      "outputs": [],
      "payable": false,
      "stateMutability": "nonpayable",
      "type": "function"
    },
    {
      "constant": true,
      "inputs": [],
      "name": "poolPrize",
      "outputs": [
        {
          "name": "",
          "type": "uint256"
        }
      ],
      "payable": false,
      "stateMutability": "view",
      "type": "function"
    },
    {
      "constant": true,
      "inputs": [],
      "name": "owner",
      "outputs": [
        {
          "name": "",
          "type": "address"
        }
      ],
      "payable": false,
      "stateMutability": "view",
      "type": "function"
    },
    {
      "constant": true,
      "inputs": [],
      "name": "ticketsIssued",
      "outputs": [
        {
          "name": "",
          "type": "uint256"
        }
      ],
      "payable": false,
      "stateMutability": "view",
      "type": "function"
    },
    {
      "constant": true,
      "inputs": [],
      "name": "totalPrizeAwarded",
      "outputs": [
        {
          "name": "",
          "type": "uint256"
        }
      ],
      "payable": false,
      "stateMutability": "view",
      "type": "function"
    },
    {
      "constant": true,
      "inputs": [],
      "name": "lotteryStart",
      "outputs": [
        {
          "name": "",
          "type": "uint256"
        }
      ],
      "payable": false,
      "stateMutability": "view",
      "type": "function"
    },
    {
      "constant": true,
      "inputs": [
        {
          "name": "",
          "type": "address"
        }
      ],
      "name": "approvedBalance",
      "outputs": [
        {
          "name": "",
          "type": "uint256"
        }
      ],
      "payable": false,
      "stateMutability": "view",
      "type": "function"
    },
    {
      "constant": true,
      "inputs": [],
      "name": "ownerFee",
      "outputs": [
        {
          "name": "",
          "type": "uint256"
        }
      ],
      "payable": false,
      "stateMutability": "view",
      "type": "function"
    },
    {
      "constant": true,
      "inputs": [
        {
          "name": "",
          "type": "address"
        }
      ],
      "name": "addressToName",
      "outputs": [
        {
          "name": "",
          "type": "string"
        }
      ],
      "payable": false,
      "stateMutability": "view",
      "type": "function"
    },
    {
      "constant": false,
      "inputs": [
        {
          "name": "newOwner",
          "type": "address"
        }
      ],
      "name": "transferOwnership",
      "outputs": [],
      "payable": false,
      "stateMutability": "nonpayable",
      "type": "function"
    },
    {
      "constant": false,
      "inputs": [
        {
          "name": "_recipient",
          "type": "address"
        }
      ],
      "name": "destroyAndSend",
      "outputs": [],
      "payable": false,
      "stateMutability": "nonpayable",
      "type": "function"
    },
    {
      "inputs": [],
      "payable": false,
      "stateMutability": "nonpayable",
      "type": "constructor"
    },
    {
      "anonymous": false,
      "inputs": [
        {
          "indexed": true,
          "name": "_from",
          "type": "address"
        },
        {
          "indexed": false,
          "name": "_quantity",
          "type": "uint256"
        }
      ],
      "name": "TicketsBought",
      "type": "event"
    },
    {
      "anonymous": false,
      "inputs": [
        {
          "indexed": true,
          "name": "_to",
          "type": "address"
        },
        {
          "indexed": false,
          "name": "_winnings",
          "type": "uint256"
        }
      ],
      "name": "AwardWinnings",
      "type": "event"
    },
    {
      "anonymous": false,
      "inputs": [],
      "name": "NewLottery",
      "type": "event"
    },
    {
      "anonymous": false,
      "inputs": [
        {
          "indexed": true,
          "name": "previousOwner",
          "type": "address"
        },
        {
          "indexed": true,
          "name": "newOwner",
          "type": "address"
        }
      ],
      "name": "OwnershipTransferred",
      "type": "event"
    },
    {
      "constant": false,
      "inputs": [],
      "name": "buyTickets",
      "outputs": [],
      "payable": true,
      "stateMutability": "payable",
      "type": "function"
    },
    {
      "constant": false,
      "inputs": [],
      "name": "donate",
      "outputs": [],
      "payable": true,
      "stateMutability": "payable",
      "type": "function"
    },
    {
      "constant": false,
      "inputs": [],
      "name": "generateWinner",
      "outputs": [],
      "payable": false,
      "stateMutability": "nonpayable",
      "type": "function"
    },
    {
      "constant": false,
      "inputs": [
        {
          "name": "_name",
          "type": "string"
        }
      ],
      "name": "changeAddressName",
      "outputs": [],
      "payable": true,
      "stateMutability": "payable",
      "type": "function"
    },
    {
      "constant": false,
      "inputs": [
        {
          "name": "_duration",
          "type": "uint256"
        }
      ],
      "name": "changeDuration",
      "outputs": [],
      "payable": false,
      "stateMutability": "nonpayable",
      "type": "function"
    },
    {
      "constant": false,
      "inputs": [
        {
          "name": "_fee",
          "type": "uint256"
        }
      ],
      "name": "changeOwnerFee",
      "outputs": [],
      "payable": false,
      "stateMutability": "nonpayable",
      "type": "function"
    },
    {
      "constant": false,
      "inputs": [
        {
          "name": "_price",
          "type": "uint256"
        }
      ],
      "name": "changeTicketPrice",
      "outputs": [],
      "payable": false,
      "stateMutability": "nonpayable",
      "type": "function"
    },
    {
      "constant": false,
      "inputs": [
        {
          "name": "_price",
          "type": "uint256"
        }
      ],
      "name": "changeNameChangePrice",
      "outputs": [],
      "payable": false,
      "stateMutability": "nonpayable",
      "type": "function"
    },
    {
      "constant": false,
      "inputs": [],
      "name": "withdraw",
      "outputs": [],
      "payable": false,
      "stateMutability": "nonpayable",
      "type": "function"
    }
  ],
  "bytecode": "0x6080604052600060075534801561001557600080fd5b50336000806101000a81548173ffffffffffffffffffffffffffffffffffffffff021916908373ffffffffffffffffffffffffffffffffffffffff16021790555060006009819055506000600b81905550600f60018190555067016345785d8a0000600381905550670de0b6b3a76400006004819055506201518060028190555042600a819055507fefe1216be7c66ec5e43ca0a0de115a63334179f1ae18aa93cdeff709e4c8c4ca60405160405180910390a16114ee806100d86000396000f30060806040526004361061013e576000357c0100000000000000000000000000000000000000000000000000000000900463ffffffff1680631209b1f614610143578063188af6571461016e5780632a11ced0146101855780632d97902f146101f25780632dbaf4f31461021d5780633ccfd60b1461024a57806345ca7738146102615780634630a0ee1461028c57806383197ef0146102b9578063835a1fae146102d05780638da5cb5b146102fb5780639dbb616f14610352578063b594f0861461037d578063b74cb416146103aa578063be807412146103d8578063c819982614610403578063cd8cc8441461040d578063cde228ce14610438578063d5b2a01a1461048f578063e16f66d4146104ba578063e2a04b62146104e7578063ed88c68e146105a3578063f2fde38b146105ad578063f5074f41146105f0575b600080fd5b34801561014f57600080fd5b50610158610633565b6040518082815260200191505060405180910390f35b34801561017a57600080fd5b50610183610639565b005b34801561019157600080fd5b506101b060048036038101908080359060200190929190505050610756565b604051808273ffffffffffffffffffffffffffffffffffffffff1673ffffffffffffffffffffffffffffffffffffffff16815260200191505060405180910390f35b3480156101fe57600080fd5b50610207610794565b6040518082815260200191505060405180910390f35b34801561022957600080fd5b506102486004803603810190808035906020019092919050505061079a565b005b34801561025657600080fd5b5061025f6107ff565b005b34801561026d57600080fd5b50610276610908565b6040518082815260200191505060405180910390f35b34801561029857600080fd5b506102b76004803603810190808035906020019092919050505061090e565b005b3480156102c557600080fd5b506102ce610973565b005b3480156102dc57600080fd5b506102e5610a08565b6040518082815260200191505060405180910390f35b34801561030757600080fd5b50610310610a0e565b604051808273ffffffffffffffffffffffffffffffffffffffff1673ffffffffffffffffffffffffffffffffffffffff16815260200191505060405180910390f35b34801561035e57600080fd5b50610367610a33565b6040518082815260200191505060405180910390f35b34801561038957600080fd5b506103a860048036038101908080359060200190929190505050610a39565b005b6103d6600480360381019080803590602001908201803590602001919091929391929390505050610a9e565b005b3480156103e457600080fd5b506103ed610bd9565b6040518082815260200191505060405180910390f35b61040b610bdf565b005b34801561041957600080fd5b50610422610e13565b6040518082815260200191505060405180910390f35b34801561044457600080fd5b50610479600480360381019080803573ffffffffffffffffffffffffffffffffffffffff169060200190929190505050610e19565b6040518082815260200191505060405180910390f35b34801561049b57600080fd5b506104a4610e31565b6040518082815260200191505060405180910390f35b3480156104c657600080fd5b506104e560048036038101908080359060200190929190505050610e37565b005b3480156104f357600080fd5b50610528600480360381019080803573ffffffffffffffffffffffffffffffffffffffff169060200190929190505050610e9c565b6040518080602001828103825283818151815260200191508051906020019080838360005b8381101561056857808201518184015260208101905061054d565b50505050905090810190601f1680156105955780820380516001836020036101000a031916815260200191505b509250505060405180910390f35b6105ab610f4c565b005b3480156105b957600080fd5b506105ee600480360381019080803573ffffffffffffffffffffffffffffffffffffffff169060200190929190505050610f8d565b005b3480156105fc57600080fd5b50610631600480360381019080803573ffffffffffffffffffffffffffffffffffffffff1690602001909291905050506110e2565b005b60035481565b600080610653600254600a5461115690919063ffffffff16565b4211151561066057600080fd5b61066933611174565b3373ffffffffffffffffffffffffffffffffffffffff167fb24ee662b0a257d0321d324e737d2507fbe45df8af8d0da951f630f3754eb6a060016040518082815260200191505060405180910390a26007600081548092919060010191905055506009544243446007546040518085815260200184815260200183815260200182815260200194505050505060405180910390206001900481151561070a57fe5b06915060088281548110151561071c57fe5b9060005260206000200160009054906101000a900473ffffffffffffffffffffffffffffffffffffffff16905061075281611268565b5050565b60088181548110151561076557fe5b906000526020600020016000915054906101000a900473ffffffffffffffffffffffffffffffffffffffff1681565b60025481565b6000809054906101000a900473ffffffffffffffffffffffffffffffffffffffff1673ffffffffffffffffffffffffffffffffffffffff163373ffffffffffffffffffffffffffffffffffffffff161415156107f557600080fd5b8060048190555050565b6000600660003373ffffffffffffffffffffffffffffffffffffffff1673ffffffffffffffffffffffffffffffffffffffff1681526020019081526020016000205490506000811415151561085357600080fd5b803073ffffffffffffffffffffffffffffffffffffffff16311015151561087957600080fd5b6000600660003373ffffffffffffffffffffffffffffffffffffffff1673ffffffffffffffffffffffffffffffffffffffff168152602001908152602001600020819055503373ffffffffffffffffffffffffffffffffffffffff166108fc829081150290604051600060405180830381858888f19350505050158015610904573d6000803e3d6000fd5b5050565b60045481565b6000809054906101000a900473ffffffffffffffffffffffffffffffffffffffff1673ffffffffffffffffffffffffffffffffffffffff163373ffffffffffffffffffffffffffffffffffffffff1614151561096957600080fd5b8060038190555050565b6000809054906101000a900473ffffffffffffffffffffffffffffffffffffffff1673ffffffffffffffffffffffffffffffffffffffff163373ffffffffffffffffffffffffffffffffffffffff161415156109ce57600080fd5b6000809054906101000a900473ffffffffffffffffffffffffffffffffffffffff1673ffffffffffffffffffffffffffffffffffffffff16ff5b600b5481565b6000809054906101000a900473ffffffffffffffffffffffffffffffffffffffff1681565b60095481565b6000809054906101000a900473ffffffffffffffffffffffffffffffffffffffff1673ffffffffffffffffffffffffffffffffffffffff163373ffffffffffffffffffffffffffffffffffffffff16141515610a9457600080fd5b8060028190555050565b6004543410151515610aaf57600080fd5b8181600560003373ffffffffffffffffffffffffffffffffffffffff1673ffffffffffffffffffffffffffffffffffffffff1681526020019081526020016000209190610afd92919061141d565b50610b7134600660008060009054906101000a900473ffffffffffffffffffffffffffffffffffffffff1673ffffffffffffffffffffffffffffffffffffffff1673ffffffffffffffffffffffffffffffffffffffff1681526020019081526020016000205461115690919063ffffffff16565b600660008060009054906101000a900473ffffffffffffffffffffffffffffffffffffffff1673ffffffffffffffffffffffffffffffffffffffff1673ffffffffffffffffffffffffffffffffffffffff168152602001908152602001600020819055505050565b600c5481565b6000806000610bfb600254600a5461115690919063ffffffff16565b42101515610c0857600080fd5b6000809054906101000a900473ffffffffffffffffffffffffffffffffffffffff1673ffffffffffffffffffffffffffffffffffffffff163373ffffffffffffffffffffffffffffffffffffffff1614151515610c6457600080fd5b6003543410151515610c7557600080fd5b6001546103e834811515610c8557fe5b04029250610cb0610c9f843461139b90919063ffffffff16565b600b5461115690919063ffffffff16565b600b81905550610d2983600660008060009054906101000a900473ffffffffffffffffffffffffffffffffffffffff1673ffffffffffffffffffffffffffffffffffffffff1673ffffffffffffffffffffffffffffffffffffffff1681526020019081526020016000205461115690919063ffffffff16565b600660008060009054906101000a900473ffffffffffffffffffffffffffffffffffffffff1673ffffffffffffffffffffffffffffffffffffffff1673ffffffffffffffffffffffffffffffffffffffff1681526020019081526020016000208190555060035434811515610d9a57fe5b049150600090505b81811015610dc057610db333611174565b8080600101915050610da2565b3373ffffffffffffffffffffffffffffffffffffffff167fb24ee662b0a257d0321d324e737d2507fbe45df8af8d0da951f630f3754eb6a0836040518082815260200191505060405180910390a2505050565b600a5481565b60066020528060005260406000206000915090505481565b60015481565b6000809054906101000a900473ffffffffffffffffffffffffffffffffffffffff1673ffffffffffffffffffffffffffffffffffffffff163373ffffffffffffffffffffffffffffffffffffffff16141515610e9257600080fd5b8060018190555050565b60056020528060005260406000206000915090508054600181600116156101000203166002900480601f016020809104026020016040519081016040528092919081815260200182805460018160011615610100020316600290048015610f445780601f10610f1957610100808354040283529160200191610f44565b820191906000526020600020905b815481529060010190602001808311610f2757829003601f168201915b505050505081565b610f63600254600a5461115690919063ffffffff16565b42101515610f7057600080fd5b610f8534600b5461115690919063ffffffff16565b600b81905550565b6000809054906101000a900473ffffffffffffffffffffffffffffffffffffffff1673ffffffffffffffffffffffffffffffffffffffff163373ffffffffffffffffffffffffffffffffffffffff16141515610fe857600080fd5b600073ffffffffffffffffffffffffffffffffffffffff168173ffffffffffffffffffffffffffffffffffffffff161415151561102457600080fd5b8073ffffffffffffffffffffffffffffffffffffffff166000809054906101000a900473ffffffffffffffffffffffffffffffffffffffff1673ffffffffffffffffffffffffffffffffffffffff167f8be0079c531659141344cd1fd0a4f28419497f9722a3daafe3b4186f6b6457e060405160405180910390a3806000806101000a81548173ffffffffffffffffffffffffffffffffffffffff021916908373ffffffffffffffffffffffffffffffffffffffff16021790555050565b6000809054906101000a900473ffffffffffffffffffffffffffffffffffffffff1673ffffffffffffffffffffffffffffffffffffffff163373ffffffffffffffffffffffffffffffffffffffff1614151561113d57600080fd5b8073ffffffffffffffffffffffffffffffffffffffff16ff5b600080828401905083811015151561116a57fe5b8091505092915050565b60088054905060095414156111ee5760088190806001815401808255809150509060018203906000526020600020016000909192909190916101000a81548173ffffffffffffffffffffffffffffffffffffffff021916908373ffffffffffffffffffffffffffffffffffffffff16021790555050611249565b80600860095481548110151561120057fe5b9060005260206000200160006101000a81548173ffffffffffffffffffffffffffffffffffffffff021916908373ffffffffffffffffffffffffffffffffffffffff1602179055505b61125f600160095461115690919063ffffffff16565b60098190555050565b61127f600254600a5461115690919063ffffffff16565b4211151561128c57600080fd5b6112e0600b54600660008473ffffffffffffffffffffffffffffffffffffffff1673ffffffffffffffffffffffffffffffffffffffff1681526020019081526020016000205461115690919063ffffffff16565b600660008373ffffffffffffffffffffffffffffffffffffffff1673ffffffffffffffffffffffffffffffffffffffff168152602001908152602001600020819055508073ffffffffffffffffffffffffffffffffffffffff167fbcf3be2d085a0c7c417736f3d8ac9677742eaafc8bea4dd1925f3e06220558df600b546040518082815260200191505060405180910390a261138a600b54600c5461115690919063ffffffff16565b600c819055506113986113b4565b50565b60008282111515156113a957fe5b818303905092915050565b6113cb600254600a5461115690919063ffffffff16565b421115156113d857600080fd5b60006009819055506000600b8190555042600a819055507fefe1216be7c66ec5e43ca0a0de115a63334179f1ae18aa93cdeff709e4c8c4ca60405160405180910390a1565b828054600181600116156101000203166002900490600052602060002090601f016020900481019282601f1061145e57803560ff191683800117855561148c565b8280016001018555821561148c579182015b8281111561148b578235825591602001919060010190611470565b5b509050611499919061149d565b5090565b6114bf91905b808211156114bb5760008160009055506001016114a3565b5090565b905600a165627a7a72305820e99f8fb23f6c6352673df1dbd003b821be680fa21aebbed675cc9681dc0795b00029",
  "source": "pragma solidity ^0.4.21;\n\nimport \"./Destructible.sol\";\nimport \"./SafeMath.sol\";\n\ncontract Lottery is Destructible {\n\n    using SafeMath for uint256;\n\n    //----------Parameters-----------\n    //permile of the ticket price that reverts to contract owner in finney. 10 == 1.0%\n    uint256 public ownerFee;\n\n    // Duration the lottery will be active for\n    uint256 public lotteryDuration;\n\n    // Price for one ticket in finney\n    uint256 public ticketPrice;\n\n    // Price to change name in finney\n    uint256 public nameChangePrice;\n\n    //----------Variables------------\n    //set a name for an address\n    mapping (address => string) public addressToName;\n\n    //maps the egem each winner/contract owner has available for withdraw\n    mapping (address => uint256) public approvedBalance;\n\n    //Nonce used to secure random \n    uint256 private nonce = 0;\n\n    // Array of ticket holders to draw winner from\n    address[] public holders;\n\n    // Total number of tickets issued\n    uint256 public ticketsIssued;\n\n    // When the lottery started\n    uint256 public lotteryStart;\n\n    //total prize available for winner\n    uint256 public poolPrize;\n\n    // Total amount of prizes issued by the contract\n    uint256 public totalPrizeAwarded;\n\n    //----------Events---------------\n    // Event for when tickets are bought\n    event TicketsBought(address indexed _from, uint256 _quantity);\n\n    // Event for declaring the winner\n    event AwardWinnings(address indexed _to, uint256 _winnings);\n\n    // Event for lottery reset\n    event NewLottery();\n\n    //---------Modifiers---------------\n\n    // Checks if still in lottery contribution period\n    modifier lotteryOngoing() {\n        require(now < (lotteryStart.add(lotteryDuration)));\n        _;\n    }\n\n    // Checks if lottery has finished\n    modifier lotteryFinished() {\n        require(now > (lotteryStart.add(lotteryDuration)));\n        _;\n    }\n\n    //---------Functions----------------\n\n    //Create the lottery\n    constructor() public {\n        ticketsIssued = 0;\n        poolPrize = 0;\n        ownerFee = 15;\n        ticketPrice = 100 finney;\n        nameChangePrice = 1000 finney;\n        lotteryDuration = 24 hours;\n        lotteryStart = now;\n\n        emit NewLottery();\n    }\n\n    //Add address to the ticket holders array. Adjust holders array size as needed\n    function insertHolder (address _holder) private {\n        if(ticketsIssued == holders.length) {\n            holders.push(_holder);\n        }\n        else {\n            holders[ticketsIssued] = _holder;\n        }\n        ticketsIssued = ticketsIssued.add(1);\n    }\n\n    // Award users tickets\n    function buyTickets() public payable lotteryOngoing {\n        require(msg.sender != owner);\n        require(msg.value >= ticketPrice);\n\n        // Add to the prize pool and pay fees\n        uint256 fee = msg.value / 1000 * ownerFee;\n        poolPrize = poolPrize.add(msg.value.sub(fee));\n        approvedBalance[owner] = approvedBalance[owner].add(fee);\n\n        // Issue the tickets\n        uint256 ticketsGenerated = msg.value / ticketPrice;\n        for(uint256 i = 0; i < ticketsGenerated; i++) {\n            insertHolder(msg.sender);\n        }\n\n        emit TicketsBought(msg.sender, ticketsGenerated);\n    }\n\n    // Fallback function calls buyTickets\n    // Not supported without named constructor\n    /*function () public payable {\n        buyTickets();\n    }*/\n\n    // Donate to the pool prize without issuing tickets. No fees\n    function donate() external payable lotteryOngoing {\n        poolPrize = poolPrize.add(msg.value);\n    }\n\n    // Restart the Lottery active time\n    function newLottery() private lotteryFinished {\n        ticketsIssued = 0;\n        poolPrize = 0;\n        lotteryStart = now;\n        emit NewLottery();\n    }\n\n    // Award the pool prize to the winner. Call newLottery\n    function awardWinnings(address _winner) private lotteryFinished {\n        approvedBalance[_winner] = approvedBalance[_winner].add(poolPrize);\n        emit AwardWinnings(_winner, poolPrize);\n        totalPrizeAwarded = totalPrizeAwarded.add(poolPrize);\n        newLottery();\n    }\n\n    //Generate the winner at pseudo random by using tickets issued as weight. Reward function caller. Call awardWinnings\n    function generateWinner() public lotteryFinished {\n\n        // Issue the caller ticket reward\n        insertHolder(msg.sender);\n        emit TicketsBought(msg.sender, 1);\n\n        nonce++;\n        uint256 rand = uint256(keccak256(now, block.number, block.difficulty, nonce)) % ticketsIssued;\n        address winner = holders[rand];\n        awardWinnings(winner);\n    }\n\n    // Change the name associated to an address\n    function changeAddressName(string _name) external payable {\n        require(msg.value >= nameChangePrice);\n        addressToName[msg.sender] = _name;\n        approvedBalance[owner] = approvedBalance[owner].add(msg.value);\n    }\n\n    //Change lottery duration\n    function changeDuration(uint256 _duration) external onlyOwner {\n        lotteryDuration = _duration;\n    }\n\n    //Change owner fee\n    function changeOwnerFee(uint256 _fee) external onlyOwner {\n        ownerFee = _fee;\n    }\n\n    //Change ticket price\n    function changeTicketPrice(uint256 _price) external onlyOwner {\n        ticketPrice = _price;\n    }\n\n    //Change name change price\n    function changeNameChangePrice(uint256 _price) external onlyOwner {\n        nameChangePrice = _price;\n    }\n\n    // Allow the winner to withdraw prize\n    function withdraw() external {\n        uint256 payment = approvedBalance[msg.sender];\n\n        require(payment != 0);\n        require(address(this).balance >= payment);\n\n        approvedBalance[msg.sender] = 0;\n\n        msg.sender.transfer(payment);\n    }\n\n}\n",
  "sourcePath": "/home/joao/Solidity Projects/mid term project/contracts/Lottery.sol",
  "compiler": {
    "name": "solc",
    "version": "0.4.22+commit.4cb486ee.Emscripten.clang"
  },
  "schemaVersion": "2.0.0",
  "updatedAt": "2018-04-19T17:30:28.119Z"
}